{
  "contractName": "TodoList",
  "abi": [
    {
      "constant": true,
      "inputs": [],
      "name": "taskCount",
      "outputs": [
        {
          "name": "",
          "type": "uint256"
        }
      ],
      "payable": false,
      "stateMutability": "view",
      "type": "function",
      "signature": "0xb6cb58a5"
    }
  ],
  "bytecode": "0x608060405260008055348015601357600080fd5b506098806100226000396000f3fe6080604052600436106039576000357c010000000000000000000000000000000000000000000000000000000090048063b6cb58a514603e575b600080fd5b348015604957600080fd5b5060506066565b6040518082815260200191505060405180910390f35b6000548156fea165627a7a72305820d696fb57e3f5e7a3994752ed2c12b4dd84cafb81c755ac6fa8b63f0dacb9314f0029",
  "source": "pragma solidity ^0.5.0;\n\ncontract TodoList {\n\nuint public taskCount = 0;\n\nstruct Task {\n    uint id;\n    string content;\n    bool completed;\n  }\n\n\n\n}",
  "sourcePath": "/Users/miriamdong/lighthouse/eth-todo-list/contracts/TodoList.sol",
  "compiler": {
    "name": "solc",
    "version": "0.5.1+commit.c8a2cb62.Emscripten.clang"
  },
  "schemaVersion": "3.0.1",
  "updatedAt": "2021-05-01T18:00:20.872Z",
  "devdoc": {
    "methods": {}
  },
  "userdoc": {
    "methods": {}
  }
}